{"abi":[{"type":"constructor","inputs":[{"name":"_token","type":"address","internalType":"address"},{"name":"_max_stake_growth_weeks","type":"uint256","internalType":"uint256"},{"name":"_start_time","type":"uint256","internalType":"uint256"},{"name":"_owner","type":"address","internalType":"address"}],"stateMutability":"nonpayable"},{"type":"function","name":"MAX_STAKE_GROWTH_WEEKS","inputs":[],"outputs":[{"name":"","type":"uint256","internalType":"uint256"}],"stateMutability":"view"},{"type":"function","name":"MAX_WEEK_BIT","inputs":[],"outputs":[{"name":"","type":"uint8","internalType":"uint8"}],"stateMutability":"view"},{"type":"function","name":"START_TIME","inputs":[],"outputs":[{"name":"","type":"uint256","internalType":"uint256"}],"stateMutability":"view"},{"type":"function","name":"acceptOwnership","inputs":[],"outputs":[],"stateMutability":"nonpayable"},{"type":"function","name":"accountData","inputs":[{"name":"account","type":"address","internalType":"address"}],"outputs":[{"name":"realizedStake","type":"uint112","internalType":"uint112"},{"name":"pendingStake","type":"uint112","internalType":"uint112"},{"name":"lastUpdateWeek","type":"uint16","internalType":"uint16"},{"name":"updateWeeksBitmap","type":"uint8","internalType":"uint8"}],"stateMutability":"view"},{"type":"function","name":"accountWeeklyToRealize","inputs":[{"name":"account","type":"address","internalType":"address"},{"name":"week","type":"uint256","internalType":"uint256"}],"outputs":[{"name":"amount","type":"uint256","internalType":"uint256"}],"stateMutability":"view"},{"type":"function","name":"approvedCaller","inputs":[{"name":"account","type":"address","internalType":"address"},{"name":"caller","type":"address","internalType":"address"}],"outputs":[{"name":"approvalStatus","type":"uint8","internalType":"enum YearnBoostedStaker.ApprovalStatus"}],"stateMutability":"view"},{"type":"function","name":"approvedWeightedDepositor","inputs":[{"name":"depositor","type":"address","internalType":"address"}],"outputs":[{"name":"approved","type":"bool","internalType":"bool"}],"stateMutability":"view"},{"type":"function","name":"balanceOf","inputs":[{"name":"_account","type":"address","internalType":"address"}],"outputs":[{"name":"","type":"uint256","internalType":"uint256"}],"stateMutability":"view"},{"type":"function","name":"checkpointAccount","inputs":[{"name":"_account","type":"address","internalType":"address"}],"outputs":[{"name":"acctData","type":"tuple","internalType":"struct YearnBoostedStaker.AccountData","components":[{"name":"realizedStake","type":"uint112","internalType":"uint112"},{"name":"pendingStake","type":"uint112","internalType":"uint112"},{"name":"lastUpdateWeek","type":"uint16","internalType":"uint16"},{"name":"updateWeeksBitmap","type":"uint8","internalType":"uint8"}]},{"name":"weight","type":"uint256","internalType":"uint256"}],"stateMutability":"nonpayable"},{"type":"function","name":"checkpointAccountWithLimit","inputs":[{"name":"_account","type":"address","internalType":"address"},{"name":"_week","type":"uint256","internalType":"uint256"}],"outputs":[{"name":"acctData","type":"tuple","internalType":"struct YearnBoostedStaker.AccountData","components":[{"name":"realizedStake","type":"uint112","internalType":"uint112"},{"name":"pendingStake","type":"uint112","internalType":"uint112"},{"name":"lastUpdateWeek","type":"uint16","internalType":"uint16"},{"name":"updateWeeksBitmap","type":"uint8","internalType":"uint8"}]},{"name":"weight","type":"uint256","internalType":"uint256"}],"stateMutability":"nonpayable"},{"type":"function","name":"checkpointGlobal","inputs":[],"outputs":[{"name":"","type":"uint256","internalType":"uint256"}],"stateMutability":"nonpayable"},{"type":"function","name":"decimals","inputs":[],"outputs":[{"name":"","type":"uint8","internalType":"uint8"}],"stateMutability":"view"},{"type":"function","name":"deposit","inputs":[{"name":"_amount","type":"uint256","internalType":"uint256"}],"outputs":[{"name":"","type":"uint256","internalType":"uint256"}],"stateMutability":"nonpayable"},{"type":"function","name":"depositAsWeighted","inputs":[{"name":"_account","type":"address","internalType":"address"},{"name":"_amount","type":"uint256","internalType":"uint256"},{"name":"_idx","type":"uint256","internalType":"uint256"}],"outputs":[{"name":"","type":"uint256","internalType":"uint256"}],"stateMutability":"nonpayable"},{"type":"function","name":"depositFor","inputs":[{"name":"_account","type":"address","internalType":"address"},{"name":"_amount","type":"uint256","internalType":"uint256"}],"outputs":[{"name":"","type":"uint256","internalType":"uint256"}],"stateMutability":"nonpayable"},{"type":"function","name":"getAccountWeight","inputs":[{"name":"account","type":"address","internalType":"address"}],"outputs":[{"name":"","type":"uint256","internalType":"uint256"}],"stateMutability":"view"},{"type":"function","name":"getAccountWeightAt","inputs":[{"name":"_account","type":"address","internalType":"address"},{"name":"_week","type":"uint256","internalType":"uint256"}],"outputs":[{"name":"","type":"uint256","internalType":"uint256"}],"stateMutability":"view"},{"type":"function","name":"getAccountWeightRatio","inputs":[{"name":"_account","type":"address","internalType":"address"}],"outputs":[{"name":"","type":"uint256","internalType":"uint256"}],"stateMutability":"view"},{"type":"function","name":"getAccountWeightRatioAt","inputs":[{"name":"_account","type":"address","internalType":"address"},{"name":"_week","type":"uint256","internalType":"uint256"}],"outputs":[{"name":"","type":"uint256","internalType":"uint256"}],"stateMutability":"view"},{"type":"function","name":"getGlobalWeight","inputs":[],"outputs":[{"name":"","type":"uint256","internalType":"uint256"}],"stateMutability":"view"},{"type":"function","name":"getGlobalWeightAt","inputs":[{"name":"week","type":"uint256","internalType":"uint256"}],"outputs":[{"name":"","type":"uint256","internalType":"uint256"}],"stateMutability":"view"},{"type":"function","name":"getWeek","inputs":[],"outputs":[{"name":"week","type":"uint256","internalType":"uint256"}],"stateMutability":"view"},{"type":"function","name":"globalGrowthRate","inputs":[],"outputs":[{"name":"","type":"uint112","internalType":"uint112"}],"stateMutability":"view"},{"type":"function","name":"globalLastUpdateWeek","inputs":[],"outputs":[{"name":"","type":"uint16","internalType":"uint16"}],"stateMutability":"view"},{"type":"function","name":"owner","inputs":[],"outputs":[{"name":"","type":"address","internalType":"address"}],"stateMutability":"view"},{"type":"function","name":"pendingOwner","inputs":[],"outputs":[{"name":"","type":"address","internalType":"address"}],"stateMutability":"view"},{"type":"function","name":"setApprovedCaller","inputs":[{"name":"_caller","type":"address","internalType":"address"},{"name":"_status","type":"uint8","internalType":"enum YearnBoostedStaker.ApprovalStatus"}],"outputs":[],"stateMutability":"nonpayable"},{"type":"function","name":"setWeightedDepositor","inputs":[{"name":"_depositor","type":"address","internalType":"address"},{"name":"_approved","type":"bool","internalType":"bool"}],"outputs":[],"stateMutability":"nonpayable"},{"type":"function","name":"stakeToken","inputs":[],"outputs":[{"name":"","type":"address","internalType":"contract IERC20"}],"stateMutability":"view"},{"type":"function","name":"sweep","inputs":[{"name":"_token","type":"address","internalType":"address"}],"outputs":[],"stateMutability":"nonpayable"},{"type":"function","name":"totalSupply","inputs":[],"outputs":[{"name":"","type":"uint256","internalType":"uint256"}],"stateMutability":"view"},{"type":"function","name":"transferOwnership","inputs":[{"name":"_pendingOwner","type":"address","internalType":"address"}],"outputs":[],"stateMutability":"nonpayable"},{"type":"function","name":"withdraw","inputs":[{"name":"_amount","type":"uint256","internalType":"uint256"},{"name":"_receiver","type":"address","internalType":"address"}],"outputs":[{"name":"","type":"uint256","internalType":"uint256"}],"stateMutability":"nonpayable"},{"type":"function","name":"withdrawFor","inputs":[{"name":"_account","type":"address","internalType":"address"},{"name":"_amount","type":"uint256","internalType":"uint256"},{"name":"_receiver","type":"address","internalType":"address"}],"outputs":[{"name":"","type":"uint256","internalType":"uint256"}],"stateMutability":"nonpayable"},{"type":"event","name":"ApprovedCallerSet","inputs":[{"name":"account","type":"address","indexed":true,"internalType":"address"},{"name":"caller","type":"address","indexed":true,"internalType":"address"},{"name":"status","type":"uint8","indexed":false,"internalType":"enum YearnBoostedStaker.ApprovalStatus"}],"anonymous":false},{"type":"event","name":"Deposit","inputs":[{"name":"account","type":"address","indexed":true,"internalType":"address"},{"name":"week","type":"uint256","indexed":true,"internalType":"uint256"},{"name":"amount","type":"uint256","indexed":false,"internalType":"uint256"},{"name":"newUserWeight","type":"uint256","indexed":false,"internalType":"uint256"},{"name":"weightAdded","type":"uint256","indexed":false,"internalType":"uint256"}],"anonymous":false},{"type":"event","name":"OwnershipTransferred","inputs":[{"name":"newOwner","type":"address","indexed":true,"internalType":"address"}],"anonymous":false},{"type":"event","name":"WeightedDepositorSet","inputs":[{"name":"depositor","type":"address","indexed":true,"internalType":"address"},{"name":"approved","type":"bool","indexed":false,"internalType":"bool"}],"anonymous":false},{"type":"event","name":"Withdraw","inputs":[{"name":"account","type":"address","indexed":true,"internalType":"address"},{"name":"week","type":"uint256","indexed":true,"internalType":"uint256"},{"name":"amount","type":"uint256","indexed":false,"internalType":"uint256"},{"name":"newUserWeight","type":"uint256","indexed":false,"internalType":"uint256"},{"name":"weightRemoved","type":"uint256","indexed":false,"internalType":"uint256"}],"anonymous":false}],"bytecode":{"object":"0x61012060405234801561001157600080fd5b50604051612b61380380612b61833981016040819052610030916101c1565b600780546001600160a01b0319166001600160a01b0383169081179091556040517f04dba622d284ed0014ee4b9a6a68386be1a4c08a4913ae272de89199cc68616390600090a26001600160a01b03841660e08190526040805163313ce56760e01b8152905163313ce567916004808201926020929091908290030181865afa1580156100c1573d6000803e3d6000fd5b505050506040513d601f19601f820116820180604052508101906100e59190610207565b60ff166101005282158015906100fc575060078311155b61013d5760405162461bcd60e51b815260206004820152600d60248201526c496e76616c6964207765656b7360981b60448201526064015b60405180910390fd5b608083905260ff6001841b1660a052600082900361015e574260c05261019c565b428211156101965760405162461bcd60e51b81526020600482015260056024820152640854185cdd60da1b6044820152606401610134565b60c08290525b50505050610231565b80516001600160a01b03811681146101bc57600080fd5b919050565b600080600080608085870312156101d757600080fd5b6101e0856101a5565b935060208501519250604085015191506101fc606086016101a5565b905092959194509250565b60006020828403121561021957600080fd5b815160ff8116811461022a57600080fd5b9392505050565b60805160a05160c05160e0516101005161287c6102e560003960006103450152600081816103ca0152818161071d01528181610e920152818161193f015261208501526000818161052b01526112ae01526000818161041c015281816108a0015281816108c40152611c9a01526000818161030b01528181610b3801528181610c7101528181610d1a0152818161150701528181611549015281816116ed01528181611c1f0152611ec7015261287c6000f3fe608060405234801561001057600080fd5b50600436106102105760003560e01c806370a08231116101255780639e94080e116100ad578063deb906e71161007c578063deb906e71461054d578063e30c3978146105d1578063e7832186146105e4578063eecbc2ae14610617578063f2fde38b1461065257600080fd5b80639e94080e146104f8578063b48e95191461050b578063b6b55f2514610513578063ddaa26ad1461052657600080fd5b8063874d6d81116100f4578063874d6d811461047457806388ba63ba1461047c5780638da5cb5b146104a757806395255285146104ba578063955c643e146104e557600080fd5b806370a082311461043e57806379ba5097146104515780637bb145a414610459578063802c4a0f1461046c57600080fd5b80632f4f21e2116101a857806349d1818d1161017757806349d1818d1461039f5780634b3b140a146103b257806351ed6a30146103c55780636766efbe146104045780636f68fa1e1461041757600080fd5b80632f4f21e21461032d578063313ce567146103405780633db9af9b146103795780633ea01b341461038c57600080fd5b806318160ddd116101e457806318160ddd146102c25780631a60021d146102cb57806328f1ae51146102de578063293405011461030657600080fd5b8062f714ce1461021557806301681a621461023b57806307f93a381461025057806312cf9dad14610263575b600080fd5b610228610223366004612489565b610665565b6040519081526020015b60405180910390f35b61024e6102493660046124b5565b61067b565b005b61022861025e3660046124d0565b610788565b6102766102713660046124d0565b610938565b6040805183516001600160701b039081168252602080860151909116908201528382015161ffff169181019190915260609283015160ff1692810192909252608082015260a001610232565b61022860065481565b6102286102d93660046124d0565b610a08565b6003546102f390600160701b900461ffff1681565b60405161ffff9091168152602001610232565b6102287f000000000000000000000000000000000000000000000000000000000000000081565b61022861033b3660046124d0565b610a32565b6103677f000000000000000000000000000000000000000000000000000000000000000081565b60405160ff9091168152602001610232565b6102286103873660046124fa565b610ae2565b61022861039a3660046124b5565b610f6c565b61024e6103ad36600461252d565b610f7a565b6102286103c0366004612568565b61100e565b6103ec7f000000000000000000000000000000000000000000000000000000000000000081565b6040516001600160a01b039091168152602001610232565b610228610412366004612581565b6110d3565b6103677f000000000000000000000000000000000000000000000000000000000000000081565b61022861044c3660046124b5565b61118c565b61024e611214565b6102286104673660046124b5565b611288565b610228611296565b6102286112a8565b61022861048a3660046124d0565b600260209081526000928352604080842090915290825290205481565b6007546103ec906001600160a01b031681565b6003546104cd906001600160701b031681565b6040516001600160701b039091168152602001610232565b61024e6104f33660046125ce565b6112d3565b6102766105063660046124b5565b61135c565b61022861141b565b610228610521366004612568565b611437565b6102287f000000000000000000000000000000000000000000000000000000000000000081565b61059a61055b3660046124b5565b6000602081905290815260409020546001600160701b0380821691600160701b810490911690600160e01b810461ffff1690600160f01b900460ff1684565b604080516001600160701b03958616815294909316602085015261ffff9091169183019190915260ff166060820152608001610232565b6008546103ec906001600160a01b031681565b6106076105f23660046124b5565b600a6020526000908152604090205460ff1681565b6040519015158152602001610232565b6106456106253660046125fa565b600960209081526000928352604080842090915290825290205460ff1681565b604051610232919061263a565b61024e6106603660046124b5565b611443565b600061067233848461148f565b90505b92915050565b6007546001600160a01b031633146106ae5760405162461bcd60e51b81526004016106a590612662565b60405180910390fd5b6040516370a0823160e01b81523060048201526000906001600160a01b038316906370a0823190602401602060405180830381865afa1580156106f5573d6000803e3d6000fd5b505050506040513d601f19601f820116820180604052508101906107199190612687565b90507f00000000000000000000000000000000000000000000000000000000000000006001600160a01b0316826001600160a01b0316036107645760065461076190826126b6565b90505b801561078457600754610784906001600160a01b038481169116836119bc565b5050565b60006107926112a8565b8211156107a157506000610675565b6001600160a01b03831660009081526020818152604091829020825160808101845290546001600160701b038082168352600160701b820416928201839052600160e01b810461ffff16938201849052600160f01b900460ff1660608201529184811061083557505050506001600160a01b0382166000908152600160209081526040808320848452909152902054610675565b6001600160a01b038616600090815260016020908152604080832061ffff851684529091528120549083900361087057935061067592505050565b60608401515b868361ffff16101561092d5760019092019161089284836126c9565b915060018160ff16901b90507f000000000000000000000000000000000000000000000000000000000000000060ff167f0000000000000000000000000000000000000000000000000000000000000000821660ff1603610928576001600160a01b038816600090815260026020908152604080832061ffff8716845290915290205461091f90856126b6565b9350831561092d575b610876565b509695505050505050565b604080516080810182526000808252602082018190529181018290526060810182905290806109656112a8565b9050808410610972578093505b61097c8585611a13565b6001600160a01b0390961660009081526020818152604091829020835181549285015193850151606086015160ff16600160f01b0260ff60f01b1961ffff909216600160e01b029190911662ffffff60e01b196001600160701b03968716600160701b026001600160e01b03199096169690931695909517939093171692909217179055959350505050565b6000610a126112a8565b821115610a2157506000610675565b61067283610a2d6112a8565b611d9b565b6000336001600160a01b03841614610ad8576001600160a01b038316600090815260096020908152604080832033845290915290205460ff166003816003811115610a7f57610a7f612624565b1480610a9c57506001816003811115610a9a57610a9a612624565b145b610ad65760405162461bcd60e51b815260206004820152600b60248201526a10a832b936b4b9b9b4b7b760a91b60448201526064016106a5565b505b6106728383611df9565b336000908152600a602052604081205460ff16610b365760405162461bcd60e51b815260206004820152601260248201527110b0b8383937bb32b22232b837b9b4ba37b960711b60448201526064016106a5565b7f0000000000000000000000000000000000000000000000000000000000000000821115610b9c5760405162461bcd60e51b815260206004820152601360248201527224b73b30b634b2103bb2b2b59034b73232bc1760691b60448201526064016106a5565b600183118015610bb257506001600160701b0383105b610bce5760405162461bcd60e51b81526004016106a5906126dc565b6000610bd86112a8565b9050600080610be78784611a13565b915091506000610bf68461215f565b600119881697909150600190811c90600090610c139089906126c9565b610c1d9083612704565b9050610c2981856126c9565b6001600160a01b038b1660009081526001602090815260408083208a8452909152902055610c60816001600160701b0385166126c9565b6000878152600460205260409020557f00000000000000000000000000000000000000000000000000000000000000008803610cb9578185600001818151610ca8919061271b565b6001600160701b0316905250610dd4565b8185602001818151610ccb919061271b565b6001600160701b03908116909152600380548593509091600091610cf19185911661271b565b92506101000a8154816001600160701b0302191690836001600160701b031602179055506000887f0000000000000000000000000000000000000000000000000000000000000000610d4391906126b6565b610d4d90886126c9565b6001600160a01b038c166000908152600260209081526040808320848452909152902054909150610d7e84826126c9565b6001600160a01b038d166000908152600260209081526040808320868452825280832093909355600590529081208054869290610dbc9084906126c9565b9091555050505060608501805160018a1b1760ff1690525b6001600160a01b038a1660009081526020818152604080832088518154938a0151928a015160608b015160ff16600160f01b0260ff60f01b1961ffff909216600160e01b029190911662ffffff60e01b196001600160701b03958616600160701b026001600160e01b03199097169590931694909417949094171691909117919091179055600680548b9290610e6b9084906126c9565b90915550506040516323b872dd60e01b8152336004820152306024820152604481018a90527f00000000000000000000000000000000000000000000000000000000000000006001600160a01b0316906323b872dd906064016020604051808303816000875af1158015610ee3573d6000803e3d6000fd5b505050506040513d601f19601f82011682018060405250810190610f079190612742565b50856001600160a01b038b167f7162984403f6c73c8639375d45a9187dfd04602231bd8e587c415718b5f7e5f98b610f3f85896126c9565b604080519283526020830191909152810185905260600160405180910390a3509698975050505050505050565b60006106758261025e6112a8565b3360009081526009602090815260408083206001600160a01b03861684529091529020805482919060ff19166001836003811115610fba57610fba612624565b0217905550816001600160a01b0316336001600160a01b03167fcdadcd1f1a942380f3ff00a651eee9878ae0c68bc11b4abb3b2c96d82477161883604051611002919061263a565b60405180910390a35050565b6000806110196112a8565b90508083111561102c5750600092915050565b60035461ffff600160701b820416906001600160701b0316818511611061575050506000918252506004602052604090205490565b61ffff8216600090815260046020526040812054908290036110865795945050505050565b858361ffff1610156110ca576001909201916110a282826126c9565b61ffff84166000908152600560205260409020549091506110c390836126b6565b9150611086565b95945050505050565b6000336001600160a01b03851614611179576001600160a01b038416600090815260096020908152604080832033845290915290205460ff16600381600381111561112057611120612624565b148061113d5750600281600381111561113b5761113b612624565b145b6111775760405162461bcd60e51b815260206004820152600b60248201526a10a832b936b4b9b9b4b7b760a91b60448201526064016106a5565b505b61118484848461148f565b949350505050565b6001600160a01b038116600090815260208181526040808320815160808101835290546001600160701b03808216808452600160701b8304909116948301859052600160e01b820461ffff1693830193909352600160f01b900460ff166060820152916111f9919061271b565b611204906002612766565b6001600160701b03169392505050565b6008546001600160a01b0316331461123e5760405162461bcd60e51b81526004016106a590612662565b60078054336001600160a01b031991821681179092556008805490911690556040517f04dba622d284ed0014ee4b9a6a68386be1a4c08a4913ae272de89199cc68616390600090a2565b600061067582610a2d6112a8565b60006112a36103c06112a8565b905090565b62093a807f000000000000000000000000000000000000000000000000000000000000000042030490565b6007546001600160a01b031633146112fd5760405162461bcd60e51b81526004016106a590612662565b6001600160a01b0382166000818152600a6020908152604091829020805460ff191685151590811790915591519182527f5cd9b15d4bc721d4072516a451cc9ddb0381d28ee4f684f401e8f80f69448c95910160405180910390a25050565b6040805160808101825260008082526020820181905291810182905260608101829052906113918361138c6112a8565b611a13565b6001600160a01b0390941660009081526020818152604091829020835181549285015193850151606086015160ff16600160f01b0260ff60f01b1961ffff909216600160e01b029190911662ffffff60e01b196001600160701b03968716600160701b026001600160e01b0319909616969093169590951793909317169290921717905593915050565b6000806114266112a8565b90506114318161215f565b91505090565b60006106753383611df9565b6007546001600160a01b0316331461146d5760405162461bcd60e51b81526004016106a590612662565b600880546001600160a01b0319166001600160a01b0392909216919091179055565b60006001831180156114a757506001600160701b0383105b6114c35760405162461bcd60e51b81526004016106a5906126dc565b60006114cd6112a8565b905060006114db8683611a13565b5090506114e78261215f565b50606081015160011986169560009060011c60ff8316156116d05760005b7f00000000000000000000000000000000000000000000000000000000000000008110156116c5576001811b60ff808216868316909116036116bc5760008261156e7f00000000000000000000000000000000000000000000000000000000000000008a6126c9565b61157891906126b6565b6001600160a01b038d16600090815260026020908152604080832084845290915290205490915080851115611622576115b28460016126c9565b6115bc9082612704565b6115c690876126c9565b6001600160a01b038e166000908152600260209081526040808320868452825280832083905560059091528120805492985083929091906116089084906126b6565b90915550509582189561161b81866126b6565b94506116b9565b61162d8460016126c9565b6116379086612704565b61164190876126c9565b6001600160a01b038e1660009081526002602090815260408083208684529091528120805492985087929091906116799084906126b6565b90915550506000828152600560205260408120805487929061169c9084906126b6565b90915550508085036116ad57958218955b600094505050506116c5565b50505b50600101611505565b5060ff831660608501525b60006116e08260018b901c6126b6565b90508115611753576117137f000000000000000000000000000000000000000000000000000000000000000060016126c9565b61171d9083612704565b61172790846126c9565b9250818560000181815161173b9190612791565b6001600160701b031690525060006020860152611772565b80856020018181516117659190612791565b6001600160701b03169052505b6001600160a01b038a1660009081526020818152604080832088518154938a0151928a015160608b015160ff16600160f01b0260ff60f01b1961ffff909216600160e01b029190911662ffffff60e01b196001600160701b03958616600160701b026001600160e01b03199097169386169390931795909517919091169390931792909217909155600380548493919261180e91859116612791565b92506101000a8154816001600160701b0302191690836001600160701b031602179055508260046000888152602001908152602001600020600082825461185591906126b6565b90915550506001600160a01b038a1660009081526001602090815260408083208984529091528120546118899085906126b6565b6001600160a01b038c1660009081526001602090815260408083208b84529091528120829055600680549293508c929091906118c69084906126b6565b9091555050604080518b81526020810183905290810185905287906001600160a01b038d16907fe08737ac48a1dab4b1a46c7dc9398bd5bfc6d7ad6fabb7cd8caa254de14def359060600160405180910390a360405163a9059cbb60e01b81526001600160a01b038a81166004830152602482018c90527f0000000000000000000000000000000000000000000000000000000000000000169063a9059cbb906044016020604051808303816000875af1158015611988573d6000803e3d6000fd5b505050506040513d601f19601f820116820180604052508101906119ac9190612742565b50989a9950505050505050505050565b604080516001600160a01b038416602482015260448082018490528251808303909101815260649091019091526020810180516001600160e01b031663a9059cbb60e01b179052611a0e90849061225f565b505050565b60408051608080820183526000808352602080840182905283850182905260609384018290526001600160a01b038716825281815284822085519384018652546001600160701b038082168552600160701b82041691840191909152600160e01b810461ffff16948301859052600160f01b900460ff169282019290925291808403611ac3576001600160a01b038516600090815260016020908152604080832093835292905220549050611d94565b808411611b245760405162461bcd60e51b815260206004820152602960248201527f737065636966696564207765656b206973206f6c646572207468616e206c61736044820152683a103ab83230ba329760b91b60648201526084016106a5565b602083015183516001600160701b0391821691166000829003611be9578015611ba5576001600160a01b038716600090815260016020908152604080832086845290915290205493505b85831015611ba5576001600160a01b0387166000908152600160208181526040808420969092018084529590529020849055611b6e565b5050506001600160a01b03841660009081526020819052604090819020805461ffff60e01b1916600160e01b61ffff87169081029190911790915590830152611d94565b6001600160a01b0387166000908152600160209081526040808320868452909152812054606087015190955090611c4988611c447f0000000000000000000000000000000000000000000000000000000000000000886126c9565b612334565b90505b80851015611d1a57600190940193611c6484876126c9565b6001600160a01b038a1660009081526001602081815260408084208a85529091529091208290559096506101fe92901b918216917f000000000000000000000000000000000000000000000000000000000000000060ff811660fe919092161603611d15576001600160a01b0389166000908152600260209081526040808320888452909152902054611cf781866126b6565b9450611d0381856126c9565b935084600003611d135750611d1a565b505b611c4c565b5b87851015611d52576001600160a01b0389166000908152600160208181526040808420989092018084529790529020869055611d1b565b6040518060800160405280846001600160701b03168152602001856001600160701b031681526020018961ffff1681526020018360ff16815250965050505050505b9250929050565b600080611da88484610788565b905080600003611dbc576000915050610675565b6000611dc78461100e565b905080600003611ddc57600092505050610675565b80611def83670de0b6b3a7640000612704565b6110ca91906127b1565b6000600182118015611e1157506001600160701b0382105b611e2d5760405162461bcd60e51b81526004016106a5906126dc565b6000611e376112a8565b9050600080611e468684611a13565b915091506000611e558461215f565b90506000600187901c9050600181901b96508084602001818151611e79919061271b565b6001600160701b03908116909152600380548493509091600091611e9f9185911661271b565b92506101000a8154816001600160701b0302191690836001600160701b0316021790555060007f000000000000000000000000000000000000000000000000000000000000000086611ef191906126c9565b6001600160a01b038a166000908152600260209081526040808320848452909152902054909150611f2283826126c9565b6001600160a01b038b166000908152600260209081526040808320868452909152902055611f5083866126c9565b6001600160a01b038b1660009081526001602090815260408083208b8452825280832093909355848252600590529081208054859290611f919084906126c9565b90915550611faa9050836001600160701b0386166126c9565b60008881526004602090815260408083209390935560608901805160011760ff90811682526001600160a01b038f1684528383528484208b518154948d0151968d015193516001600160701b039182166001600160e01b031990961695909517600160701b91909716029590951762ffffff60e01b1916600160e01b61ffff9093169290920260ff60f01b191691909117600160f01b929091169190910217909155600680548b929061205e9084906126c9565b90915550506040516323b872dd60e01b8152336004820152306024820152604481018a90527f00000000000000000000000000000000000000000000000000000000000000006001600160a01b0316906323b872dd906064016020604051808303816000875af11580156120d6573d6000803e3d6000fd5b505050506040513d601f19601f820116820180604052508101906120fa9190612742565b50866001600160a01b038b167f7162984403f6c73c8639375d45a9187dfd04602231bd8e587c415718b5f7e5f98b612132878a6126c9565b604080519283526020830191909152810187905260600160405180910390a3509698975050505050505050565b60035461ffff600160701b82041660008181526004602052604081205490926001600160701b0316908084036121ba5750506003805461ffff909416600160701b0261ffff60701b1990941693909317909255506000919050565b848361ffff16036121cd57949350505050565b848361ffff16101561221e576001909201916121e982826126c9565b61ffff84166000908152600460209081526040808320849055600590915290205490915061221790836126b6565b91506121cd565b6003805461ffff909616600160701b026fffffffffffffffffffffffffffffffff199096166001600160701b03909316929092179490941790555090919050565b60006122b4826040518060400160405280602081526020017f5361666545524332303a206c6f772d6c6576656c2063616c6c206661696c6564815250856001600160a01b031661234a9092919063ffffffff16565b90508051600014806122d55750808060200190518101906122d59190612742565b611a0e5760405162461bcd60e51b815260206004820152602a60248201527f5361666545524332303a204552433230206f7065726174696f6e20646964206e6044820152691bdd081cdd58d8d9595960b21b60648201526084016106a5565b60008183106123435781610672565b5090919050565b6060611184848460008585600080866001600160a01b0316858760405161237191906127f7565b60006040518083038185875af1925050503d80600081146123ae576040519150601f19603f3d011682016040523d82523d6000602084013e6123b3565b606091505b50915091506123c4878383876123cf565b979650505050505050565b6060831561243e578251600003612437576001600160a01b0385163b6124375760405162461bcd60e51b815260206004820152601d60248201527f416464726573733a2063616c6c20746f206e6f6e2d636f6e747261637400000060448201526064016106a5565b5081611184565b61118483838151156124535781518083602001fd5b8060405162461bcd60e51b81526004016106a59190612813565b80356001600160a01b038116811461248457600080fd5b919050565b6000806040838503121561249c57600080fd5b823591506124ac6020840161246d565b90509250929050565b6000602082840312156124c757600080fd5b6106728261246d565b600080604083850312156124e357600080fd5b6124ec8361246d565b946020939093013593505050565b60008060006060848603121561250f57600080fd5b6125188461246d565b95602085013595506040909401359392505050565b6000806040838503121561254057600080fd5b6125498361246d565b915060208301356004811061255d57600080fd5b809150509250929050565b60006020828403121561257a57600080fd5b5035919050565b60008060006060848603121561259657600080fd5b61259f8461246d565b9250602084013591506125b46040850161246d565b90509250925092565b80151581146125cb57600080fd5b50565b600080604083850312156125e157600080fd5b6125ea8361246d565b9150602083013561255d816125bd565b6000806040838503121561260d57600080fd5b6126168361246d565b91506124ac6020840161246d565b634e487b7160e01b600052602160045260246000fd5b602081016004831061265c57634e487b7160e01b600052602160045260246000fd5b91905290565b6020808252600b908201526a08585d5d1a1bdc9a5e995960aa1b604082015260600190565b60006020828403121561269957600080fd5b5051919050565b634e487b7160e01b600052601160045260246000fd5b81810381811115610675576106756126a0565b80820180821115610675576106756126a0565b6020808252600e908201526d1a5b9d985b1a5908185b5bdd5b9d60921b604082015260600190565b8082028115828204841417610675576106756126a0565b6001600160701b0381811683821601908082111561273b5761273b6126a0565b5092915050565b60006020828403121561275457600080fd5b815161275f816125bd565b9392505050565b6001600160701b03818116838216028082169190828114612789576127896126a0565b505092915050565b6001600160701b0382811682821603908082111561273b5761273b6126a0565b6000826127ce57634e487b7160e01b600052601260045260246000fd5b500490565b60005b838110156127ee5781810151838201526020016127d6565b50506000910152565b600082516128098184602087016127d3565b9190910192915050565b60208152600082518060208401526128328160408501602087016127d3565b601f01601f1916919091016040019291505056fea2646970667358221220dc7dd168635f6be5a08acb3feab4af8ea35331fde6d1cddb6890754796441bf164736f6c63430008190033","linkReferences":{}},"methodIdentifiers":{"MAX_STAKE_GROWTH_WEEKS()":"29340501","MAX_WEEK_BIT()":"6f68fa1e","START_TIME()":"ddaa26ad","acceptOwnership()":"79ba5097","accountData(address)":"deb906e7","accountWeeklyToRealize(address,uint256)":"88ba63ba","approvedCaller(address,address)":"eecbc2ae","approvedWeightedDepositor(address)":"e7832186","balanceOf(address)":"70a08231","checkpointAccount(address)":"9e94080e","checkpointAccountWithLimit(address,uint256)":"12cf9dad","checkpointGlobal()":"b48e9519","decimals()":"313ce567","deposit(uint256)":"b6b55f25","depositAsWeighted(address,uint256,uint256)":"3db9af9b","depositFor(address,uint256)":"2f4f21e2","getAccountWeight(address)":"3ea01b34","getAccountWeightAt(address,uint256)":"07f93a38","getAccountWeightRatio(address)":"7bb145a4","getAccountWeightRatioAt(address,uint256)":"1a60021d","getGlobalWeight()":"802c4a0f","getGlobalWeightAt(uint256)":"4b3b140a","getWeek()":"874d6d81","globalGrowthRate()":"95255285","globalLastUpdateWeek()":"28f1ae51","owner()":"8da5cb5b","pendingOwner()":"e30c3978","setApprovedCaller(address,uint8)":"49d1818d","setWeightedDepositor(address,bool)":"955c643e","stakeToken()":"51ed6a30","sweep(address)":"01681a62","totalSupply()":"18160ddd","transferOwnership(address)":"f2fde38b","withdraw(uint256,address)":"00f714ce","withdrawFor(address,uint256,address)":"6766efbe"},"id":25}